:020000040800F2
:1000000060060020C50000086D2500088D1D000851
:1000100000000000000000000000000000000000E0
:10002000000000000000000000000000B7250008EC
:100030000000000000000000B5250008B9250008F8
:10004000D700000800000000D7000008D700000813
:10005000D7000008D7000008D7000008D700000824
:10006000000000005906000869060008D7000008D3
:1000700035050008D7000008D70000080000000080
:10008000B92600080000000000000000D7000008AA
:1000900000000000D700000881260008911D00081C
:1000A00000000000D700000800000000D700000892
:1000B0000348854600F01CFA00480047DD29000887
:1000C000600600200448804704480047FEE7FEE73A
:1000D000FEE7FEE7FEE7FEE725260008B100000880
:1000E00030B50B46014600202022012409E00D46D0
:1000F000D5409D4205D31D469540491B2546954058
:1001000040191546521E002DF1DC30BD10B5202AD5
:1001100004DB0846203AD040002110BD0B46D340F6
:10012000D0402024A21A91400843194610BDD2B2F3
:1001300001E00270401C491EFBD270470022F6E726
:1001400010B513460A4604461946FFF7F0FF20464D
:1001500010BD0000F0B51FB488B00B9909980024B9
:1001600048400999C00F490049080991C0070B99F7
:100170000090490049080B9109990898A646084340
:100180001CD00B990A98084318D009980124400004
:10019000420D4800410D099824050003000B20433F
:1001A00009900B980003000B20430B9050181C493A
:1001B0004018002201901446104605E00020014638
:1001C0000DB0F0BD032801DA034600E003239C468E
:1001D000C11A0AAE0AE05F0008ADED5B4F00F75BA5
:1001E0007D430027AA187C41491C5B1E6145F2DD56
:1001F000410004AB5A522104120C0A43240C401C47
:100200000828DFDB01980290009970460191009068
:10021000059B049A0799069800F018F9D0E70000AA
:100220000DFCFFFFF0B50C465C4085B0E40FE40721
:1002300003944C000026640859009446490802467D
:100240000296224321D062460A431ED06200570D17
:100250004A000E032303550D012402462C492405B0
:10026000781B1B0B360B4018234326436146009036
:100270001C46501AB44103D30098401C009002E081
:10028000921800985B41002803DA0020014605B06F
:10029000F0BD0020012109050746864611E06446AD
:1002A0001D46141BB54106D36546521BB341744627
:1002B00007430C43A646CD07400849082843921837
:1002C0005B4105460D43EAD11046184313D0604602
:1002D000194650407140084306D06046101AB34199
:1002E00006D20122002306E000220123DB0702E000
:1002F0000122D2435310009874460105381C614115
:10030000029C039D0019694100F093F8BFE70000CB
:10031000FD03000010B5044696230800214604D0D2
:10032000B623002200F04CF810BD20460021F8E76B
:100330000EB505490291002100910A460B46019134
:1003400000F084F803B000BD330400004A00090344
:100350000123090B1B051943094B10B5520D9A4295
:1003600001DA002010BD064B34339A4203DC9A1A9E
:10037000FFF7CCFE10BD03495118884010BD0000A6
:10038000FF030000CDFBFFFFC20FD2074000400873
:100390000BD0C10D0723DB01C91840020905400A33
:1003A0001143C208400711437047002001467047BF
:1003B000002904DA401C490001D140084000704780
:1003C00070B40024050C05D11024000402D10029CA
:1003D00021D01124050E01D100020834050F01D1EE
:1003E0000001241D850F01D18000A41C002801DB21
:1003F0004000641C002908D020252E1B0D46F54026
:10040000A14000D001212943084301061B1B000A1B
:10041000DB1D02D5002070BC7047DB051818801862
:100420000029F8DA401C4900F5D170BC40084000B2
:10043000704710B5002B08DA0024401C6141921867
:100440005B411A4301D14008400010BDF0B51FB414
:1004500082B005460C0003D0084602F099FA02E08B
:1004600002F096FA2030024600902146284600F01D
:1004700051F8049B059A04460F461843114308435C
:1004800014D0184610431BD0009840210A1A184671
:100490000599FFF73BFE05460E46009A059904981C
:1004A00000F038F8084305D0012004E02046394622
:1004B00007B0F0BD0020C11705430E432C4337435E
:1004C00000990E986305401A7905E40A00220C434E
:1004D000FD0A0A3002D500200146E9E7010510199E
:1004E00069410C9C0D9D00196941FFF7A2FFDFE7F0
:1004F000064C0125064E05E0E36807CC2B430C3C77
:1005000098471034B442F7D3FFF7D6FD783000088F
:100510009830000810B5202A04DB0146203A9140AB
:10052000002010BD914020239C1A0346E34019434C
:10053000904010BD10B5024800F051F910BD000008
:100540004C00002010B50146406A426C50231A420C
:100550000AD1416C01225202114341640168CA6808
:100560001205920F05D020E0C06B026B0846904741
:1005700010BD026A002A18D10A68120715D58A68C8
:1005800053070122002B09DB4B680C24A3434B606B
:10059000416C130299431143416406E0416C2023EE
:1005A00019434164816C1143816400F015F910BD59
:1005B00010B5406A416C402211434164816C0422B1
:1005C0001143816400F00AF910BD10B5406A00F0D3
:1005D00004F910BDF8B50446002000902068816839
:1005E0008907890F012905D10168C9072CD1C16884
:1005F000090429D48168154A1026114001250029D3
:1006000015D1816829438160124811490068FFF7BC
:1006100067FD00E0401E00900028FBD100F03AFC8E
:1006200007460CE000F036FCC01B022807D9606CBE
:1006300030436064A06C2843A0640120F8BD2068AA
:100640000068C043C007EDD10020F8BD170000804E
:1006500040420F004800002010B5024800F0ACFAFC
:1006600010BD00001802002010B5024800F0A4FAE6
:1006700010BD0000D401002010B5044600680549F3
:1006800040181421FFF72CFD800020640248E0632D
:1006900010BD0000F8FFFDBF0000024030B5056C42
:1006A0000124AC40C56B6C60046863604368102B28
:1006B000036803D099600068C26030BD9A6000682A
:1006C000C16030BD70470000F8B5002504464034D5
:1006D00000952278012A39D00122227003689E6891
:1006E000760767D4384F4E68BE424DD09E6A0F7869
:1006F000BA4016439E620123826B1B079A421FD0A9
:10070000012A1DD0022A1BD0032A19D0042A17D08F
:10071000052A15D0062A13D0072A11D002688B6843
:1007200056697607760FB3420AD05369DB08DB00BF
:100730005361006842690B7A5B075B0F1A434261A1
:100740000A68102A04D0112A02D038E00220F8BD2D
:100750001E488368102A07D0012292051343836044
:100760000868102803D02AE00122D205F6E71948CC
:1007700017490068FFF7B4FC0A21484300E0401E17
:1007800000900028FBD11AE0986A0E78B24090439E
:1007900098620968102901D0112910D10B4882688C
:1007A000102904D0012189058A43826007E00121D4
:1007B000C905F9E7416C202211434164012500205D
:1007C00020702846F8BD00000110000000270140FD
:1007D00040420F004800002070477047704770B5D6
:1007E000044600680168490702D54168490705D4F5
:1007F0000168090730D5416809072DD5616CC90624
:1008000004D4616C0122520211436164C1680C2559
:100810000905890F00291AD1216A002917D1016819
:10082000090714D581684A070121002A08DB4268BC
:10083000AA434260606C0A0290430843606406E089
:10084000606C202210436064A06C0843A0642046C2
:10085000FFF7C2FF206805602068016809060DD512
:10086000406800060AD5606C0121090408436064F1
:10087000204600F0D7F821688020086020680168D1
:10088000C90613D54168C90610D5616B1025012929
:1008900002D0C168C90707D0A16C02221143A1642C
:1008A00005602046FFF79AFF2068056070BD0000D4
:1008B000F8B500250446002803D0606C002802D05B
:1008C00008E00120F8BD0020A06440210855204622
:1008D00000F0AAF8606C1022C006002870DB2068C7
:1008E000816849076CD4616C130199430223194351
:1008F000616481688907890F012905D10168C907E9
:100900000FD1C16809040CD4C16818239943A368A6
:100910001943C16020680169636889008908194327
:1009200001612068C1683D4B1940C160A069E1695F
:100930008003C9030843216A4B031843636B012BEF
:1009400002D001231B0300E000231843E36818438F
:100950002369022B09D000231843236B666A5B00CE
:1009600018430123012E02D00AE00423F4E70029F2
:1009700027D0616C202631436164A16C1943A164C6
:10098000A16A0E46FF3EC23E02D0E66A31430843EA
:100990002168CE680643CE600126A16B3607B142BE
:1009A00013D0012911D002290FD003290DD0042919
:1009B0000BD0052909D0062907D0072905D010E05A
:1009C00028E0012109040843DAE721684E69F608A6
:1009D000F6004E6121684E69278F7F077F0F3E43E7
:1009E0004E612168C9680E4E3140814207D1002016
:1009F000A064606C80088000401C606408E0606C4B
:100A00000221884310436064A06C1843A064012550
:100A10002846F8BD606C10436064F8E71902FEFFD9
:100A2000E7FF3F8370470000F0B587B0054614210B
:100A30006846FFF783FB2149286888423CD120495A
:100A40008A69401502438A618A69024005924A69AF
:100A5000000202434A6149690026014005910C20C9
:100A6000009003200190092069460296C00600F01C
:100A700061F91448144C41C480204700A7602660E7
:100A80006060C000E0602020666120610E48083C84
:100A900000F0E0F8002801D0FFF714FE0B480168D1
:100AA00039430160EC63002211460C20656200F0BE
:100AB00057FB0C2000F04AFB07B0F0BD00240140BA
:100AC000001002401C000240D40100200000014040
:100AD000F7B5044600680025806840073DD42646E7
:100AE0004036307801280AD001273770E0690128A4
:100AF00007D02046FFF76EFD050002D02EE0022051
:100B0000FEBD606C16490840FF2101310843606456
:100B10000020A0643070E16B12488862E16B1248DB
:100B2000C862E16B1148086321681C2008602068D6
:100B300041681022114341602068C1683943C16097
:100B40002168E06B4031029B019A00F0AFF8206809
:100B5000816804221143816000E002252846FEBD21
:100B6000FEF1FFFF45050008CB050008B1050008B0
:100B700070B50024014620314A78022A03D00421AE
:100B80008163012416E0026813680E25AB431360ED
:100B9000026813685B085B0013600122056C134652
:100BA000AB40C56B6B604A7000220A70416B002934
:100BB00000D08847204670BDF0B4C16B0D68016855
:100BC0000C680422066C1346B3402B420DD0630719
:100BD0000BD50B689B0602D40B6893430B60016C2A
:100BE0008A40C16B4A60C16A19E00227B7400246D9
:100BF0002F4001232032002F15D0A70713D50C68F2
:100C0000A40604D40C680A25AC430C605370036C32
:100C100002219940C36B596000211170816A00293B
:100C200016D0F0BC08470827B7402F4210D0240741
:100C30000ED50C680E25AC430C60046C1946A1401F
:100C4000C46B61608363537000211170016BE6E730
:100C5000F0BC704770B5040024D00220214620313A
:100C60000D464870226811680F48A368014060680B
:100C700026691843E3683343184363691843A3693B
:100C80001843E3691843084310602046FFF7F4FC5B
:100C90000020A062E06220636063A06301216970AC
:100CA000287070BD012070BD0FC0FFFFF8B504466D
:100CB0008C46203001780025012909D001260670D4
:100CC00041780027012905D0077002252846F8BD84
:100CD0000220F8BD02214170A7632068016849081D
:100CE0004900016061462046FFF7D8FCE06A002811
:100CF0002068016802D00E22114306E00A22114347
:100D00000160206801680422914301602068016845
:100D100031430160DAE731B500F0BCF8009C0546CC
:100D2000601C00D0641C00F0B5F8401BA042FAD350
:100D300038BD0000F8B500238DE001249C40A44696
:100D400022407DD04C68022C01D0122C0CD1DC0842
:100D5000A40027183C6A5D07ED0E0F26AE40B44391
:100D60000E69AE4026433E6205685E000324B4402F
:100D70000F79A543BF07BF0FB7402F4307604D68EA
:100D8000012D05D0022D03D0112D01D0122D0ED131
:100D90008568CF68A543B7402F438760476865469D
:100DA000AF430D79ED06ED0F9D403D434560C568AD
:100DB000A5438C68B4402C43C4604C68E40049D51A
:100DC000284CA56901263543A561A4699D083440D6
:100DD0000094254CAD002F19BC689D072E0F0F25E0
:100DE000B540AC430925ED06A84201D100250FE02E
:100DF0001E4DA84201D101250AE01D4DA84201D196
:100E0000022505E01B4DA84201D1032500E0052580
:100E1000B5402543BD60184C25684E689543F603E0
:100E200000D51543256065684E689543B60300D527
:100E300015436560A5684E689543F60202D500E04B
:100E400008E01543A560E5684E689543B60200D5F5
:100E50001543E5605B1C0A681446DC4000D06CE773
:100E6000F8BD0000001002400000014000040048EE
:100E700000080048000C00480004014000690840D8
:100E800000D001207047002A01D081617047816243
:100E900070470000014800687047000044000020CF
:100EA00070B5024640325378202B1CD11378012BA9
:100EB00019D00123137024245470046825689D43BD
:100EC0002560046825681E03B5432560046825680D
:100ED0000D432560006801681943016020205070AF
:100EE0000020107070BD022070BD70B50246403207
:100EF0005378202B1BD11378012B18D001241470A8
:100F00002423537003681D68A5431D6005682B6882
:100F10000F263602B34309021943296000680168AD
:100F200021430160202050700020107070BD02200D
:100F300070BD7047704770B503689A691968D40529
:100F400007D50C0605D5446C01252C4344642C02BE
:100F5000DC61530508D50B0606D5436C08242343F2
:100F60004364E3010468E361920508D5090606D5E8
:100F7000416C02221143416411020268D161416C4B
:100F80000B22114202D0416C00F0A6FF70BD026836
:100F900091691268436B002B00D018477047704767
:100FA00070B5040006D02546403568780026002834
:100FB00002D005E0012070BD2E70204600F04CF8F4
:100FC00024206870206801684908490001600F21E9
:100FD0006068090688432168086121688A680120E1
:100FE000C00382438A60E1680129A16808D02122F8
:100FF0009202114322689160E168022902D005E063
:101000000143F7E701212268C902516021684A685B
:101010000F4B1A434A602168CA688243CA606169FB
:1010200020690843A169090208432168C860216A50
:10103000E0690843216808602068016801221143C3
:1010400001606664202068702663AE70002070BD69
:10105000008000027047000010B586B004461421DD
:101060006846FFF76BF816492068884225D1154C71
:10107000616901208004014361616169014005915A
:10108000C0200090122001210190032002910491C0
:10109000039069460C48FFF74DFEE16901204005C9
:1010A0000143E161E16900220140059111461720E9
:1010B00000F056F8172000F049F806B010BD000007
:1010C0000054004000100240000400487047704780
:1010D00002480168491C016070470000440000207C
:1010E00010B506480168102211430160002000F08D
:1010F00007F800F017F8002010BD000000200240A3
:1011000010B5044600F03AF97D21C900FEF7E8FF6A
:1011100000F020FB00222146501E00F021F80020A4
:1011200010BD000008B508488169012211438161A2
:10113000816911400091C26901040A43C261C0691A
:101140000840009008BD000000100240C106C90E12
:1011500001208840014908607047000000E100E07C
:1011600010B501F005FA10BDF8B505460068354C1C
:10117000C00352D5E0690026C00007D4E16920040D
:101180000143E161E1690140012600912E480168B7
:10119000C90510D40168821511430160FFF77AFE7A
:1011A000074604E0FFF776FEC01B642824D82648D3
:1011B0000068C005F6D5206A03273F02384020D0DA
:1011C0006968394081421CD0206A226AB8430121F3
:1011D00009040A432262226A8A4322622062C0070B
:1011E0000FD0FFF757FE009008E0FFF753FE00997D
:1011F000411A1648814201D90320F8BD206A8007B0
:10120000F3D5206A6968B84308432062002E04D0F1
:10121000E169012000078143E1612878C00705D01A
:10122000206BA96880088000084320632878800626
:1012300005D5206B10218843E9680843206300200E
:10124000F8BD00000010024000700040881300004C
:10125000F8B5054644480E460068C007C00FB042C6
:101260000AD24148016849084900314301600068D9
:10127000C007C00FB0425CD128783C4C800705D530
:101280006068F0218843A968084360602878C00737
:101290003FD06868012813D02168022813D089073D
:1012A000002946DA61688908890001436160FFF717
:1012B000F1FD6968074601290DD0022917D024E005
:1012C00021688903ECE78901EAE7FFF7E3FDC11B29
:1012D0002748814217D860680007800F0128F4D1A1
:1012E00017E0FFF7D7FDC11B214881420BD860688A
:1012F0000007800F0228F4D10BE0FFF7CBFDC11BE4
:101300001B48814201D90320F8BD60680007800FA7
:10131000F3D115480168C907C90FB1420BD901685B
:1013200049084900314301600068C007C00FB0425E
:1013300001D00120F8BD2878400706D56068072154
:1013400009028843E9680843606000F01DF861689D
:10135000084A0906090F515CC84007490860002087
:10136000FFF7CEFE0020F8BD002002400010024032
:101370008813000068300008480000200148006819
:10138000704700004800002010B512A30FCB88B0B2
:101390006C460FC413A30FCB0FC416494A680C2028
:1013A000134603401448042B0FD0082B0DD1930291
:1013B0001B0F6C46E45CC96A04AB0907090F595C52
:1013C000D20304D5FEF78CFE604308B010BD0B4875
:1013D0006043FAE702030405060708090A0B0C0D2F
:1013E0000E0F10100102030405060708090A0B0C72
:1013F0000D0E0F100010024000127A0000093D008F
:10140000FEB504460078D04DC00747D06868000795
:10141000800F012807D068680007800F022809D1D3
:101420006868C00306D52868800337D5606800283F
:101430007ED033E0012062680004012A11D08100CF
:10144000002A01D0052A10D02A6882432A60286821
:10145000884328606068002814D0FFF71BFD06460B
:101460000CE0296801432960F4E72A680A432A60EE
:10147000F7E7FFF70FFD801B64286FD8286880030B
:10148000F7D50BE0FFF706FD064604E0FFF702FD87
:10149000801B6428F1D828688003F7D420780126BF
:1014A000800700283BDA68680007800F07D068686B
:1014B0000007800F022809D16868C00306D4286895
:1014C000800715D5E068012832D111E0E0680028D6
:1014D000286815D030432860FFF7DCFC074604E09D
:1014E000FFF7D8FCC01B0228C7D828688007F7D5AB
:1014F0002868F82188432169C900084328600EE064
:10150000400840002860FFF7C5FC074604E0FFF7ED
:10151000C1FCC01B0228B0D828688007F7D4207807
:10152000000724D5E0690028686A10D0304300E045
:1015300008E16862FFF7AEFC074604E0FFF7AAFC8B
:10154000C01B022899D8686A8007F7D50FE04008C9
:1015500040006862FFF79EFC074605E09DE0FFF74C
:1015600099FCC01B022888D8686A8007F7D42078C5
:1015700004274007002860DA00200190E869C000D5
:1015800008D4E969B8060143E961E969014001202D
:10159000009101906D480168C90511D40168821558
:1015A00011430160FFF776FC009005E0FFF772FC45
:1015B0000099401A642870D864480068C005F5D5C1
:1015C000A06801280AD0002801D0052810D0286A78
:1015D000400840002862286AB84301E0286A304386
:1015E0002862A068002812D0FFF754FC00900AE09F
:1015F000286A38432862F1E7FFF74CFC0099411A4A
:101600005348814249D8286A8007F5D50DE0FFF795
:1016100041FC009006E0FFF73DFC0099411A4C4860
:1016200081423AD8286A8007F5D40198002804D06E
:10163000E969012000078143E9612078C00635D5BA
:10164000606901280CD0401D686B23D03843686363
:10165000686B400840006863FFF71CFC064622E008
:10166000686B38436863686B30436863FFF712FC4C
:10167000064604E0FFF70EFC801B02285BD8686B6F
:101680008007F7D5686BF8218843A169C900084332
:1016900068630BE0B8436863F4E74CE0FFF7FAFBDC
:1016A000801B022847D8686B8007F7D4206A00287F
:1016B00046D069680907890F022943D001263606FA
:1016C0000228286805D0B0432860FFF7E3FB0446F2
:1016D00033E0B0432860FFF7DDFB074604E0FFF787
:1016E000D9FBC01B022826D828688001F7D4E86AF5
:1016F000E16A000900010843E862616AA06A0843E0
:1017000069683D22120491430843686028683043A9
:101710002860FFF7BFFB044604E0FFF7BBFB001B9C
:10172000022808D828688001F7D509E0FFF7B2FB46
:10173000001B022801D90320FEBD28688001F5D4D2
:101740000020FEBD0120FEBD0010024000700040E0
:1017500088130000094910B5401E884201D90120B4
:1017600010BD074C60610321081F00F001FF00203D
:10177000A06107202061002010BD0000FFFFFF00D6
:1017800000E000E07047704770B5034620331A7FD1
:10179000012A27D001241C7702225A770326CA681F
:1017A0003602B2438E6800253243A602B2434E6829
:1017B00000683243E602B2430E6832432603B24366
:1017C0000E6932436603B2434E6989693243A60308
:1017D000B2430A43E603B2430A4342645C771D778F
:1017E000002070BD022070BD70B502462032137F0C
:1017F000012B1BD0012313770224547704686568FA
:101800007026B5436560046865680E683543656099
:101810000468A5688026B543A560006884684968A7
:101820000C43846053770020107770BD022070BD98
:1018300070B5040005D025462035687F002802D009
:1018400006E0012070BD00202877204600F00AF84D
:1018500002206877211D206800F04AFF0120687788
:10186000002070BD38B505460068174988422AD166
:1018700016488269012189040A4382618069154CF6
:101880000840009012482060102060608021E160D4
:101890000020A0604900216189006161A061C80049
:1018A000E0612046FFF7D6F9002801D0FEF70AFFD5
:1018B0006C622C620022114616206562FFF750FC14
:1018C0001620FFF743FC38BD0048014000100240DD
:1018D00008000240180200200268D36801210B436F
:1018E000D360006802680A430260002070477047B6
:1018F000704770B50446006801690025C94389072F
:10190000002915DBC168C943890711D4E91E0161AB
:1019100001202077206880698007204602D0FFF7E9
:10192000E7FF04E000F0D2F8204600F07BF92577CD
:1019300020680169C943490717D4C168C9434907E9
:1019400013D40421C94301610220207720688069F3
:101950008005800F204602D0FFF7CAFF04E000F0A8
:10196000B5F8204600F05EF9257720680169C94383
:10197000090716D4C168C943090712D40821C9430D
:101980000161042020772068C0698007204602D0CA
:10199000FFF7AEFF04E000F099F8204600F042F9AE
:1019A000257720680169C943C90617D4C168C943AE
:1019B000C90613D41021C94301610820207720688B
:1019C000C0698005800F204602D0FFF791FF04E038
:1019D00000F07CF8204600F025F9257720680169A1
:1019E000C943C90708D1C168C943C90704D1891EC1
:1019F0000161204600F0C8F920680169C943090661
:101A000009D4C168C943090605D48021C9430161CD
:101A10002046FFF7B7FE20680169C943490609D48B
:101A2000C168C943490605D44021C9430161204624
:101A300000F0ABF920680169C943890609D4C1687F
:101A4000C943890605D42021C94301612046FFF717
:101A50009AFE70BD70B586B0044614216846FEF744
:101A60006DFB2568164E012409200021154A6404E7
:101A70000223C006B5420DD155692543556152690F
:101A800002912240059203221202019304930092D4
:101A900003910FE00C4EB5420FD1556925435561B6
:101AA00052690291224005928022039105210193FF
:101AB000009204916946FFF73DF906B070BD000041
:101AC000002C014000100240004801407047F8B56A
:101AD000064604462036307F0D4601280DD00120F1
:101AE0003077022070770427002A08D0042A16D005
:101AF000082A2AD00C2A4DD137E00220F8BD2068F0
:101B000000F064FE20688169082211438161206829
:101B10008169B9438161206881692A6912E020687E
:101B200000F090FE206882690121C9020A438261A7
:101B30002068816901229202914381612068816954
:101B40002A6912021143816124E0206800F0B4FE8A
:101B50002068C26908210A43C2612068C169B9438B
:101B6000C1612068C1692A6912E0206800F0E0FEC6
:101B70002068C1690122D2021143C1612068C26993
:101B8000012189028A43C2612068C1692A6912025F
:101B90001143C1610120707700203077F8BD70B526
:101BA000040005D025462035687F002802D006E0D5
:101BB000012070BD00202877204600F00BF802209D
:101BC0006877211D206800F093FD012068770020D0
:101BD00070BD000008B5104A01681048914207D155
:101BE0008269C1140A43826180690840009008BD7F
:101BF0000B4A9142FBD1C26902210A43C261C0690A
:101C000000220840009011461020FFF7A9FA10208A
:101C1000FFF79CFA08BD0000002C014000100240B4
:101C20000004004003490020096848630249087025
:101C300070470000640100200000002010B5044639
:101C40000068012200F090FD0A482168814205D019
:101C50000948814202D00948814204D1486C0122DE
:101C6000D2031043486420680168012211430160D7
:101C7000002010BD002C01400044014000480140FC
:101C800070B504460E462030417F1546022903D028
:101C9000417F012902D009E0022070BD002D03D14F
:101CA000002B01D0012070BD02214177314832491B
:101CB000002E06D0042E13D0082E3CD00C2E1FD19F
:101CC00048E0626A9062606A0163226829463432A1
:101CD000606AFEF7EBFF2068C168012252020DE046
:101CE000A26A9062A06A0163226829463832A06A1B
:101CF000FEF7DCFF2068C168012292021143C16037
:101D000001223146206800F02FFD1C4920688842DE
:101D100005D01B49884202D01A49884204D1416C3F
:101D20000122D2031143416420680168012211435A
:101D30000160002070BDE26A9062E06A016322687F
:101D400029463C32E06AFEF7B1FF2068C1680122F3
:101D5000D202D3E7226B9062206B0163226829468E
:101D60004032206BFEF7A2FF2068C16801221203F7
:101D7000C4E700007F270008BD270008002C0140B1
:101D8000004401400048014070477047FEE70000F2
:101D900010B50648006880694005400F034802D02E
:101DA000FFF7C9F810BDFFF7F2F810BD980000204A
:101DB00010B5406A01684A680123DB031A434A6090
:101DC000826B00215163C26B5163014640314A78F6
:101DD000602A02D0FFF7E3F810BD20224A70FFF717
:101DE000A8F810BDF0B503460022CE0740332824E2
:101DF000B025002E05D05E7842222746B74300D09A
:101E0000F2228E0705D544265B7832439C4300D0EE
:101E10002A434B0701D5B8231A4311238B4301D121
:101E200090231A4312238B4301D160210A43006897
:101E30000168914301600020F0BD01688A69D243C6
:101E4000920701D400228A6200688169C943C907E8
:101E500003D081690122114381617047F8B50546BD
:101E600004464035687828218143206804D0082141
:101E7000C16100202870F8BD8169C903CF0F816955
:101E8000FE230E0C81681E408A05C168920D194020
:101E90008C46E168022912D10621D3090E400B407D
:101EA0009E420BD1A16C491CA164A16C0229E2D114
:101EB0000021A1640823C361297007E0664604215C
:101EC0002046FFF78FFF0020287032463946204613
:101ED000FFF730F8F8BD0000F8B50026054640359C
:101EE0000446AE702C48E0626685606C084360640E
:101EF00068782027282823D06878292820D0687877
:101F00002A281DD007212046FFF76CFF687860283B
:101F100000D06F7026636663206801684A041F4919
:101F2000026817D501239B039A430260A06B4163AB
:101F30002E70A06BFEF71CFE00281DD0A06B19E0D0
:101F400003212046FFF74EFF2820687026631448BF
:101F50006063E1E7120410D502680123DB039A43B2
:101F60000260E06B41632E70E06BFEF701FE00281B
:101F700002D0E06B416B8847F8BD6878602804D0D8
:101F80002E702046FFF70BF8F8BD6F702E702046BC
:101F9000FEF7CFFFF8BD00000000FFFFB11D0008F5
:101FA0003921000870B504461548E0620025256314
:101FB00020222046403006464270857065634807FF
:101FC00011D52068416A606A421C62620170208DEE
:101FD000002808D0401E2085608D401E6085606C02
:101FE00004210843606407212046FFF7FBFE2168B7
:101FF0001020C86135702046FFF72CF870BD000036
:102000000000FFFFF8B50446006820260F46C661B1
:1020100021680820C86107212046FFF7E3FE2068F9
:102020004168B20211434160206841682D4A114065
:1020300041602046FFF701FF2068016825464904FA
:102040004035002902DB0168090406D56978212999
:102050002FD0E16B096849686185628D0421002AEF
:1020600002D0626C0A4362647A070FD5426A606AE2
:10207000431C63620270208D002807D0401E20851B
:10208000608D401E6085606C0843606400202063A2
:10209000A8706063616C00290DD0616C2046FFF769
:1020A0001BFF6878282803D139462046FFF77AFFBE
:1020B000F8BDA16BCEE7E26A0B498A4206D0E16225
:1020C0006E7028702046FEF7C5FFF8BD69786E7007
:1020D00022292870204602D0FEF7F9FFF8BDFEF74E
:1020E000F5FFF8BD00E800FE0000FFFF70B5002618
:1020F000044640340546A6706178282029290ED070
:1021000061782A290AD1607022202863022128469A
:10211000FFF768FE26702846FEF7D8FF70BD607096
:102120002120286301212846FFF75CFE26702846FF
:10213000FEF7CDFF70BD0000F8B5054604464035FA
:10214000287816460F46012811D0012028703F49F3
:10215000F8062DD5F0062BD5628D1020002A08D068
:102160002168C861606C04210843606462E0022059
:10217000F8BDE36A01225206934202D0E36A934219
:1021800002D16A78282A08D0E26A8A4202D06978A5
:10219000292907D02168C8614CE039462046FFF75D
:1021A00001FF47E02168C8612046FFF746FE3EE098
:1021B000780717D5700715D5608D00280BD02068DB
:1021C000426A606A431C63620270208D401E208553
:1021D000608D401E6085608D00282BD1E06A8842AA
:1021E00025D127E0380706D5300704D539462046E3
:1021F000FFF734FE1EE0B8071CD5B0071AD5608D76
:1022000000280CD0606A411C6162216800788862F5
:10221000608D401E6085208D401E20850AE0E06AAA
:1022200001210906884202D0E06A002802D1204636
:10223000FFF75CFFB80605D5B00603D53946204642
:10224000FFF7E0FE00202870F8BD00000000FFFF4F
:10225000F0B501688A6908231207002A00DACB6109
:102260000268916901274D07164C1749002D09DABC
:10227000556A8E78EDB2002E21D0556A4A78A55461
:10228000521C4A700568AA69920704D54A78A45C72
:10229000AC62521C4A704C7800221E2C00D34A704B
:1022A0000468A569AD0608D52025E5610468E361E9
:1022B000006883693B4383618A700020F0BD4D70E4
:1022C0008F70DFE7B6010020000000200EB500216E
:1022D0001548009101910291124A416002608160AB
:1022E000012204230C300EC001604160C160FF2355
:1022F0008260C23382610361C26141611838FEF7B6
:10230000D7FA02200090C002019006200290694690
:102310000548FEF7D9F90320009069460248FEF708
:10232000D3F90EBD002401404C000020F0B587B069
:1023300014216846FDF702FF1D4842690121490446
:102340000A43426142690A400592426949000A43D0
:1023500042614069174C08400926F60605900022A4
:1023600021463046FEF78FFD134F002203213846E9
:10237000FEF789FD00940024012501950294694629
:1023800030460394FEF7D6FC0C4800900194694651
:1023900002943046FEF7CEFC03200090029469467A
:1023A000019503943846FEF7C5FC07B0F0BD000068
:1023B00000100240010C00000004004802800000F0
:1023C00010B50E480C4901600D494160CA21816079
:1023D0000121C1600021016141618161C16101622E
:1023E000FEF7DEFD00210548FEF75AFD00210348F7
:1023F000FEF77BFD10BD0000005400409800002057
:102400001A09102030B58FB01C216846FDF796FEE2
:102410001C2107A8FDF792FE17491848002412C096
:1024200004603C25846045608021C46001610838F7
:10243000FFF7FEF91148FFF7B2FB60200594019504
:1024400000900294039404940022694606940B4879
:10245000FFF73DFB01200794400308940C9009947A
:102460000A940B9407A90D940448FFF78DF90348CB
:10247000FFF7F0FA0FB030BD0048014064010020C2
:1024800010B590B000240E941C2168460F94FDF7FF
:1024900055FE1C2107A8FDF751FE1C481A49016092
:1024A0001B49846041600461446164218461C160AE
:1024B000FFF775FB0E940EA914480F94FFF794F9DB
:1024C00060200594019400900294039404940022E7
:1024D000694606940D48FFF7FAFA042269460B484C
:1024E000FFF7F5FA01200794400308940C90099433
:1024F0000A940B9407A90D940448FFF745F9034883
:10250000FFF7A8FA10B010BD002C0140E400002035
:10251000BF03000030B589B0002407941C21684631
:102520000894FDF70BFE0F490F48FF2512C0046009
:10253000E1358460456004610838FFF730FB07949B
:1025400007A909480894FFF74FF96020009002940A
:1025500000226946019504940348FFF7B8FA09B0D0
:1025600030BD00000004004024010020704700003E
:102570008307FF22DB0E9A408907090E9940002845
:102580000BDA0007000F0838830808489B0018186A
:10259000C36993430B43C3617047830804489B009E
:1025A0001B181868904308431860704700ED00E05E
:1025B00000E400E07047704710B5FEF789FD10BDDC
:1025C00070B594B030216846FDF7B8FD00240F9433
:1025D000122000900D940120129403901025059074
:1025E0000E94052010941394C0040C9404950226B4
:1025F00006950A901194089609940B946846FEF784
:10260000FFFE07200C900E9401210D960F940CA84C
:10261000FEF71EFE20201090139510A8FEF7A4FDD3
:1026200014B070BD13480168012211430160416874
:10263000114A114041600168104A1140016001686F
:10264000012292049143016041683F2212049143A8
:102650004160C16A09090901C162016BFF2214329C
:1026600091430163416B4908490041630021816046
:1026700070470000001002400CB8FF08FFFFF6FE94
:1026800010B50B490B681869C0070DD0094A1068CE
:1026900058630A3010603C2801DD002010600120E2
:1026A0000968C043086110BD0148FFF722F910BD59
:1026B000640100204000002010B50B48006801694B
:1026C000C9070CD00121C943016108480A240268E6
:1026D00041681219002359410260416010BD02484F
:1026E000FFF707F910BD00002401002010000020B2
:1026F00070B50268174B184E984201D0B04203D112
:102700007024A2434C682243144C154D984208D0C3
:10271000B04206D0134EB04203D0A04201D0A8422E
:1027200004D103263602B243CE6832438026B24338
:102730004E69324302608A68C2620A6882629842C5
:1027400003D0A04201D0A84201D10969016301214F
:10275000416170BD002C0140000400400044014074
:10276000004801400020004010B50123046A8B405E
:102770009C430462036A8A401343036210BD10B590
:10278000446A01213D221155626A824201D12177BA
:102790000EE0A16A814201D1022008E0E16A814293
:1027A00001D1042003E0216B814201D10820207770
:1027B0002046FFF737FA0020207710BD10B5406A99
:1027C00001223D210A54FFF792F810BDF0B5026ACC
:1027D000520852000262056A436882697024A2436B
:1027E00092080C6892001443022295438A68134EA3
:1027F0002A43114DA84204D0B04202D0104FB84233
:1028000006D10827BA43CF681743042297433A46B4
:10281000A84204D0B04202D0094DA84206D10325F7
:102820002D02AB434D691D438B692B43436084618B
:10283000496841630262F0BD002C01400044014040
:102840000048014070B5026A10239A430262046A8C
:102850004368826973252D02AA430D682D02154332
:10286000202294438A6812012243104CA04208D1CE
:102870001446CA688026B443120122434024A2436E
:1028800005E00B4CA04202D00A4CA04208D1032420
:10289000A402A3434C69A4001C438B699B002343FF
:1028A0004360856149688163026270BD002C01400C
:1028B000004401400048014070B5026AFF23013323
:1028C0009A430262046A4368C2697025AA43920867
:1028D0000D68920015430122520294438A68120245
:1028E0002243104CA04207D1C414A243CC68240256
:1028F00022430615B24305E00B4CA04202D00B4C1C
:10290000A04208D103242403A3434C6924011C439F
:102910008B691B0123434360C5614968C16302623F
:1029200070BD0000002C01400044014000480140FF
:1029300030B5026A01231B039A430262056A4268AA
:10294000C36973242402A3430C6824021C4301239B
:102950005B039D438B681B032B430A4DA84205D0A4
:10296000094DA84202D0094DA84205D10125AD0369
:10297000AA434D69AD012A434260C46149680164BC
:10298000036230BD002C014000440140004801407A
:102990002021020C01D010211046020A01D010465D
:1029A0000839020901D01046091F820801D01046DB
:1029B000891E420801D0881E7047081A704702E03D
:1029C00008C8121F08C1002AFAD1704770470020BA
:1029D00001E001C1121F002AFBD1704708B5FEF7C4
:1029E0007FFBFFF7EDFDFFF7A1FCFC4841690122E9
:1029F00011434161406910400022009011460920B6
:102A0000FEF7AEFB0920FEF7A1FB002211460A20CB
:102A1000FEF7A6FB0A20FEF799FBFFF7D1FCFFF7B4
:102A2000F1FCFFF777FDFFF72BFDFFF74FFCEC48BC
:102A300001684A680124E403A2434A60E94941630A
:102A4000006801682E2211430160E5488C30FEF7D2
:102A500043FF1221E448FDF771FB00F037FAE2482A
:102A60001E211230FDF76AFBDD480222DF494C3897
:102A7000FEF72EF8DD4DDC4CAD1FE8781234401C1B
:102A8000E8702078DA4EC20901213046FEF7FBF9E2
:102A9000207802210006C2173046521CFEF7F3F9D7
:102AA00020784106490E002000F0E8F960780926F8
:102AB000C2090121F60689023046FEF7E4F9607882
:102AC00001210006C217C9023046521CFEF7DBF98D
:102AD00060784106490E042000F0D0F929780029D9
:102AE0001ED00022A07B02421CD02379E278A1787C
:102AF000002000F0DFF9E379A2796179012000F08C
:102B0000D9F9A37A627A217A022000F0D3F9637BA3
:102B1000227BE17A032000F0CDF900F0D7F909E03B
:102B20000122DFE7012900D00021014202D0400844
:102B30004000A073E77B380676D52879002808D0B6
:102B4000012811D0022825D0032837D004284DD0E1
:102B50006AE0012211463046FEF795F96969286955
:102B60006962286201205EE0296A0A22686A89187F
:102B7000002358412A696B69891A984154D200226E
:102B800001213046FEF77FF9696928696963286386
:102B9000022048E002213046FEF770F9012802D0F9
:102BA000296B686B12E069692869696228620320F1
:102BB00039E0002028620146686213E002213046B5
:102BC000FEF75CF900280BD0296A686A894A00235D
:102BD000891858412A696B69891A9841E9D323E019
:102BE00069692869E962A86204201CE0284620304F
:102BF0000DC8E96A181A9141FDF78CFBFDF7C4FB7B
:102C00007D4A7E4BFDF7A6FA00227D4BFDF7A2FA26
:102C1000FDF79CFB39090901020A1143207448069B
:102C2000400EE07300202871704F3888FDF780FB5C
:102C30000022744BFDF78EFA0022734BFDF7F2FA77
:102C4000FDF784FB684C123460747888FDF770FBE4
:102C500000226C4BFDF77EFA00226B4BFDF7E2FA87
:102C6000FDF774FBA0740127FF0309203946C00655
:102C7000FEF704F9002800D0FCE628462D694469D7
:102C8000816BC26B2346691A934164220026511A54
:102C90009E41F1D23E4607460DE0396978694A1BEC
:102CA0005A49A0410023891A834104D279693869BD
:102CB000F963B863DEE609203146C006FEF7DEF8A8
:102CC0000028EAD00020B8613D46F8613F69686994
:102CD0000924E40600900EE029696869009AC91B7E
:102CE00090414A4B0022591A824104D269692869ED
:102CF000E963A863BEE631462046FEF7BFF8012827
:102D0000EAD00020009039480127801FFF03466960
:102D100005690FE001694069491B3D4BB041002244
:102D2000591A824106D23148801F42690169C26343
:102D300081639FE639462046FEF7A0F80028354813
:102D4000E8D00746466905690AE0491B2F4BB041A8
:102D50000022591A824103D26420FDF7DCFF89E684
:102D600001210920C903C006FEF788F80128396946
:102D70007869EAD0491BB0417D22D200511A002364
:102D80000099834107D22F20411A0120BA69884057
:102D90001043B86109E02F20411A01208840C14347
:102DA000BA6900201140B961F8610098401C009098
:102DB0003028A8DB174E0927FF06756934692BE018
:102DC00030697169021B1148A9410023801A8B41A7
:102DD00022D271693069F163B0634BE600100240A2
:102DE0009800002051220008A401002006000020C5
:102DF00000040048A08601006181F975F1C8913F87
:102E00000000244000E06F4000FEAF408813000047
:102E1000B80B0000000000200121C9033846FEF76E
:102E20002DF80028CCD0104AB069F16942400A431D
:102E300015D00E4A42400A430BD00D4A42400A4385
:102E40000BD00C4A5040084305D00B4900200875B0
:102E5000BFE7462104E0422102E04C2100E052217C
:102E600005480175B5E70000050400012D2C00019F
:102E700085840001ADAC0001B601002030B587B0FB
:102E80000D4604461C216846FDF758F96020009065
:102E90000020029004900195224669460448FEF7FE
:102EA00016FE21460248FEF7C9FE07B030BD0000FD
:102EB000E400002010B5440004190348015520180F
:102EC0004270837010BD0000A4010020F0B5FFB077
:102ED000CAB00D252824322107A8FDF72FF90020BC
:102EE000844607AB41005E486144425C0818664670
:102EF000182741787E43807832360F0601D5274661
:102F000000E02F46B6009F514F0601D5274600E04E
:102F10002F46F61877608F0601D5274600E02F462A
:102F2000B760CF0601D5274600E02F46F7600F07B0
:102F300001D5274600E02F4637614F0701D52746C8
:102F400000E02F4677618F0701D5274600E02F4626
:102F5000B761C90701D0214600E02946F161110699
:102F600001D5214600E029463162510601D52146AE
:102F700000E029467162910601D5214600E029460C
:102F8000B162D10601D5214600E02946F162110760
:102F900001D5214600E029463163510701D521467C
:102FA00000E029467163910701D5214600E02946DA
:102FB000B163D10701D0214600E02946F163010643
:102FC00001D5214600E029463164410601D521465C
:102FD00000E029467164810601D5214600E02946BA
:102FE000B164C10601D5214600E02946F16401071C
:102FF00001D5214600E029463165410701D521462A
:1030000000E029467165810701D5214600E0294687
:10301000B165C00701D0204600E02846F065604653
:10302000401C8446062800DA5CE7602000900020FF
:103030000290049002460590094869464038FEF720
:1030400046FD07486123DB0007AA00214038FEF750
:1030500017FE0449012008707FB04AB0F0BD00009F
:10306000A40100200000002000000000000000007B
:103070000102030406070809983000080000002038
:103080004C000000BE290008E43000084C0000207D
:1030900014060000CE290008000000000000000017
:1030A0000000000000000000000000000000000020
:1030B0000000000000000000000000000000000010
:1030C0000000000000000000000000000000000000
:1030D00000000000000000000000000000000000F0
:0430E00000127A0060
:04000005080000B13E
:00000001FF
